:100000000C942A000C943C000C943C000C943C0092
:100010000C943C000C943C000C94090A0C94430989
:100020000C94A6090C94D8080C9475060C9425061B
:100030000C943C000C943C000C943C000C943C0050
:100040000C943C000C943C000C943C000C943C0040
:100050000C943C0011241FBECFE5D8E0DEBFCDBF1D
:1000600010E0A0E6B0E001C01D92A63AB107E1F7AA
:100070000E94680A0C94120B0C940000DF93CF933B
:10008000CDB7DEB7EAE3F0E087E08083E7E3F0E0B6
:100090001082E4E3F0E01082E1E3F0E01082EBE3B1
:1000A000F0E01082E8E3F0E01082E5E3F0E0108297
:1000B000E2E3F0E01082CF91DF910895DF93CF93D8
:1000C00000D000D0CDB7DEB78A836B834C8381E04C
:1000D00089838A81843008F0D6C08B81883008F00B
:1000E000D2C08C81813021F08C81882309F0CBC073
:1000F0008A81882381F58C818130A1F4AAE3B0E064
:10010000EAE3F0E08081482F8B81282F30E081E006
:1001100090E0022E02C0880F991F0A94E2F7842B08
:100120008C93B2C08C81882309F0AEC0AAE3B0E002
:10013000EAE3F0E08081482F8B81282F30E081E0D6
:1001400090E0022E02C0880F991F0A94E2F7809572
:1001500084238C9399C08A81813081F58C81813090
:10016000A1F4A7E3B0E0E7E3F0E08081482F8B81C2
:10017000282F30E081E090E0022E02C0880F991F06
:100180000A94E2F7842B8C937FC08C81882309F03A
:100190007BC0A7E3B0E0E7E3F0E08081482F8B81EC
:1001A000282F30E081E090E0022E02C0880F991FD6
:1001B0000A94E2F7809584238C9366C08A8182300A
:1001C00081F58C818130A1F4A4E3B0E0E4E3F0E0B8
:1001D0008081482F8B81282F30E081E090E0022E33
:1001E00002C0880F991F0A94E2F7842B8C934CC0AD
:1001F0008C81882309F048C0A4E3B0E0E4E3F0E098
:100200008081482F8B81282F30E081E090E0022E02
:1002100002C0880F991F0A94E2F7809584238C937B
:1002200033C08A81833081F58C818130A1F4A1E3D0
:10023000B0E0E1E3F0E08081482F8B81282F30E0AF
:1002400081E090E0022E02C0880F991F0A94E2F725
:10025000842B8C9319C08C818823B1F4A1E3B0E086
:10026000E1E3F0E08081482F8B81282F30E081E0AE
:1002700090E0022E02C0880F991F0A94E2F7809541
:1002800084238C9301C0198289810F900F900F9065
:100290000F90CF91DF910895DF93CF93CDB7DEB765
:1002A0002A970FB6F894DEBF0FBECDBF8A836B834B
:1002B0004C8381E089838B81883008F0F9C08C8180
:1002C000282F30E03A87298789859A85009709F495
:1002D00077C029853A852130310509F0E7C08A8148
:1002E000282F30E038872F838F81988581309105C2
:1002F00049F12F813885223031052CF48F81988582
:10030000009761F05BC02F8138852230310571F193
:100310008F81988583309105E9F150C0ABE3B0E05F
:10032000EBE3F0E08081482F8B81282F30E081E0E3
:1003300090E0022E02C0880F991F0A94E2F7842BE6
:100340008C93B7C0A8E3B0E0E8E3F0E08081482FE9
:100350008B81282F30E081E090E0022E02C0880FD0
:10036000991F0A94E2F7842B8C93A3C0A5E3B0E015
:10037000E5E3F0E08081482F8B81282F30E081E099
:1003800090E0022E02C0880F991F0A94E2F7842B96
:100390008C938FC0A2E3B0E0E2E3F0E08081482FCD
:1003A0008B81282F30E081E090E0022E02C0880F80
:1003B000991F0A94E2F7842B8C937BC0198279C031
:1003C0008A81282F30E03E832D838D819E8181306C
:1003D000910559F12D813E81223031052CF48D811A
:1003E0009E81009769F060C02D813E8122303105E9
:1003F00089F18D819E818330910509F440C054C0FC
:10040000ABE3B0E0EBE3F0E08081482F8B81282F55
:1004100030E081E090E0022E02C0880F991F0A941C
:10042000E2F7809584238C9344C0A8E3B0E0E8E32E
:10043000F0E08081482F8B81282F30E081E090E030
:10044000022E02C0880F991F0A94E2F78095842338
:100450008C932FC0A5E3B0E0E5E3F0E08081482F66
:100460008B81282F30E081E090E0022E02C0880FBF
:10047000991F0A94E2F7809584238C931AC0A2E313
:10048000B0E0E2E3F0E08081482F8B81282F30E05C
:1004900081E090E0022E02C0880F991F0A94E2F7D3
:1004A000809584238C9305C0198203C0198201C0F2
:1004B000198289812A960FB6F894DEBF0FBECDBF90
:1004C000CF91DF910895DF93CF93CDB7DEB7289713
:1004D0000FB6F894DEBF0FBECDBF8B836C835E83F7
:1004E0004D8381E08A838C81883008F09DC08D81A6
:1004F0009E81009709F498C08B81282F30E03887BF
:100500002F834F81588541305105A9F18F819885FE
:100510008230910534F42F8138852115310571F031
:1005200081C04F8158854230510509F441C08F8107
:1005300098858330910509F458C074C0E9E3F0E070
:100540008081282F30E08C81882F90E0A90102C0A3
:10055000559547958A95E2F7CA018170898389810B
:10056000813029F4ED81FE8181E080835EC0ED81E0
:10057000FE8110825AC0E6E3F0E08081282F30E04F
:100580008C81882F90E0A90102C0559547958A95E6
:10059000E2F7CA01817089838981813029F4ED8174
:1005A000FE8181E0808341C0ED81FE8110823DC0EB
:1005B000E3E3F0E08081282F30E08C81882F90E009
:1005C000A90102C0559547958A95E2F7CA01817045
:1005D00089838981813029F4ED81FE8181E08083E6
:1005E00024C0ED81FE81108220C0E0E3F0E0808134
:1005F000282F30E08C81882F90E0A90102C055950A
:1006000047958A95E2F7CA01817089838981813093
:1006100029F4ED81FE8181E0808307C0ED81FE81B8
:10062000108203C01A8201C01A828A8128960FB6EE
:10063000F894DEBF0FBECDBFCF91DF910895DF9359
:10064000CF93CDB7DEB729970FB6F894DEBF0FBEB4
:10065000CDBF8A836B8381E089838B81282F30E033
:1006600039872887888599850097D9F12885398524
:100670002130310509F066C08A81282F30E03F83A0
:100680002E838E819F8181309105D1F02E813F8113
:10069000223031052CF48E819F81009761F01FC0BC
:1006A0002E813F812230310581F08E819F81833000
:1006B000910581F014C0EAE3F0E08FEF808343C03E
:1006C000E7E3F0E08FEF80833EC0E4E3F0E08FEFFC
:1006D000808339C0E1E3F0E08FEF808334C019827A
:1006E00032C08A81282F30E03D832C838C819D810C
:1006F00081309105C9F02C813D81223031052CF4E7
:100700008C819D81009761F01BC02C813D8122303E
:10071000310571F08C819D818330910569F010C0A5
:10072000EAE3F0E010820FC0E7E3F0E010820BC0D4
:10073000E4E3F0E0108207C0E1E3F0E0108203C0E0
:10074000198201C01982898129960FB6F894DEBFFB
:100750000FBECDBFCF91DF910895DF93CF9300D02F
:1007600000D00F92CDB7DEB78A836B8381E0898397
:100770008A81282F30E03D832C838C819D818130BC
:100780009105D1F02C813D81223031052CF48C81F2
:100790009D81009761F01FC02C813D812230310581
:1007A00081F08C819D818330910581F014C0EBE351
:1007B000F0E08B81808310C0E8E3F0E08B818083E0
:1007C0000BC0E5E3F0E08B81808306C0E2E3F0E05C
:1007D0008B81808301C0198289810F900F900F90C7
:1007E0000F900F90CF91DF910895DF93CF9300D0BA
:1007F00000D000D0CDB7DEB78A837C836B8381E0E5
:1008000089838B819C810097E9F18A81282F30E0D0
:100810003E832D838D819E8181309105E1F02D8174
:100820003E81223031052CF48D819E81009761F04C
:1008300027C02D813E8122303105A1F08D819E811E
:1008400083309105B1F01CC0E9E3F0E08081EB81D9
:10085000FC81808318C0E6E3F0E08081EB81FC81BD
:10086000808311C0E3E3F0E08081EB81FC81808331
:100870000AC0E0E3F0E08081EB81FC81808303C06B
:10088000198201C01982898126960FB6F894DEBFBD
:100890000FBECDBFCF91DF910895DF93CF93CDB73A
:1008A000DEB7AFE5B0E0EFE5F0E0808180688C93E3
:1008B000CF91DF910895DF93CF93CDB7DEB7AFE54A
:1008C000B0E0EFE5F0E080818F778C93CF91DF91FE
:1008D0000895DF93CF93CDB7DEB726ED34E085E002
:1008E00090E0B9010E94760587EC0E949E050E9467
:1008F000DA05CF91DF910895DF93CF93CDB7DEB7BF
:1009000028970FB6F894DEBF0FBECDBF8A837C83D5
:100910006B835E834D8338872F8381E089838A814F
:100920008330C8F58F8198850097A9F18A81282F97
:1009300030E0C901880F991F820F931F880F991FFC
:10094000FC01EC56FF4F8B819C81918380838A81CF
:10095000282F30E0C901880F991F820F931F01963D
:10096000880F991FFC01EC56FF4F8D819E8191836A
:1009700080838A81282F30E0C901880F991F820F58
:10098000931F880F991FFC01E856FF4F8F819885B0
:100990009183808301C01982898128960FB6F894CB
:1009A000DEBF0FBECDBFCF91DF910895DF93CF9310
:1009B0000F92CDB7DEB7198269C08981282F30E048
:1009C000C901880F991F820F931F0196880F991FE5
:1009D000FC01EC56FF4F808191810097A1F5898140
:1009E000282F30E0C901880F991F820F931F880FAD
:1009F000991FFC01E856FF4F0190F081E02D099509
:100A00008981482F50E08981282F30E0C901880F63
:100A1000991F820F931F880F991FFC01EC56FF4FFF
:100A2000808191819C0121503040CA01880F991F1B
:100A3000840F951F0196880F991FFC01EC56FF4FFC
:100A40003183208320C08981282F30E0C901880F9D
:100A5000991F820F931F0196880F991FFC01EC5676
:100A6000FF4F80819181AC0141505040C901880FF6
:100A7000991F820F931F0196880F991FFC01EC5656
:100A8000FF4F5183408389818F5F898389818330C0
:100A900008F493CF0F90CF91DF910895DF93CF9318
:100AA00000D000D00F92CDB7DEB79B838A837D83C1
:100AB0006C8381E089838C819D81009769F08C81B2
:100AC0009D8190936100809360008A819B819093C7
:100AD00082008093810001C0198289810F900F905C
:100AE0000F900F900F90CF91DF910895DF93CF93E8
:100AF00000D000D00F92CDB7DEB79B838A837D8371
:100B00006C8381E089838C819D81009769F08C8161
:100B10009D8190936300809362008A819B81909372
:100B200085008093840001C0198289810F900F9005
:100B30000F900F900F90CF91DF910895DF93CF9397
:100B40000F92CDB7DEB78983ECE5F0E08981808331
:100B50000F90CF91DF910895DF93CF930F92CDB790
:100B6000DEB78983E2E5F0E0898180838981809323
:100B700083000F90CF91DF910895DF93CF9300D042
:100B80000F92CDB7DEB79B838A8381E089838A8108
:100B90009B81009739F0E2E5F0E08081EA81FB81FA
:100BA000808301C0198289810F900F900F90CF919F
:100BB000DF910895DF93CF930F92CDB7DEB781E039
:100BC0008983A3E5B0E0E3E5F0E0808188608C9361
:100BD000A3E5B0E0E3E5F0E080818F7B8C93A3E5B3
:100BE000B0E0E3E5F0E080818F7D8C93A3E5B0E099
:100BF000E3E5F0E080818F7E8C93A9E5B0E0E9E544
:100C0000F0E0808182608C93A9E5B0E0E9E5F0E056
:100C100080818E7F8C93A3E5B0E0E3E5F0E08081F6
:100C20008B7F8C93A3E5B0E0E3E5F0E08081826008
:100C30008C93A3E5B0E0E3E5F0E080818E7F8C93B8
:100C400089810F90CF91DF9108951F920F920FB677
:100C50000F9211242F933F934F935F936F937F9342
:100C60008F939F93AF93BF93EF93FF93DF93CF93B4
:100C7000CDB7DEB7809164009091650001969093A6
:100C8000650080936400209164003091650080913C
:100C900081009091820028173907A1F4E2E5F0E085
:100CA000809183008083109265001092640080918F
:100CB000600090916100009729F0E0916000F09150
:100CC00061000995CF91DF91FF91EF91BF91AF91B5
:100CD0009F918F917F916F915F914F913F912F9154
:100CE0000F900FBE0F901F9018951F920F920FB686
:100CF0000F9211242F933F934F935F936F937F93A2
:100D00008F939F93AF93BF93EF93FF93DF93CF9313
:100D1000CDB7DEB780916600909167000196909301
:100D20006700809366002091660030916700809193
:100D30008400909185002817390779F41092670094
:100D4000109266008091620090916300009729F0F4
:100D5000E0916200F09163000995CF91DF91FF91DE
:100D6000EF91BF91AF919F918F917F916F915F9123
:100D70004F913F912F910F900FBE0F901F9018959C
:100D8000DF93CF93CDB7DEB727970FB6F894DEBFCA
:100D90000FBECDBF6A837B838C839D835F834E832D
:100DA00081E089838E819F81009799F08E819F8158
:100DB00090936900809368008A819B81AC81BD819A
:100DC0008093860090938700A0938800B093890059
:100DD00001C01982898127960FB6F894DEBF0FBE35
:100DE000CDBFCF91DF910895DF93CF93CDB7DEB71D
:100DF00027970FB6F894DEBF0FBECDBF6A837B8303
:100E00008C839D835F834E8381E089838E819F8164
:100E1000009799F08E819F8190936B0080936A0078
:100E20008A819B81AC81BD8180938C0090938D00E1
:100E3000A0938E00B0938F0001C0198289812796FC
:100E40000FB6F894DEBF0FBECDBFCF91DF910895EE
:100E5000DF93CF93CDB7DEB727970FB6F894DEBFF9
:100E60000FBECDBF6A837B838C839D835F834E835C
:100E700081E089838E819F81009799F08E819F8187
:100E800090936D0080936C008A819B81AC81BD81C1
:100E90008093900090939100A0939200B093930060
:100EA00001C01982898127960FB6F894DEBF0FBE64
:100EB000CDBFCF91DF910895DF93CF9300D0CDB711
:100EC000DEB79A838983EAE4F0E089819A8191838D
:100ED00080830F900F90CF91DF910895DF93CF9390
:100EE00000D0CDB7DEB79A838983E8E4F0E089814A
:100EF0009A81918380830F900F90CF91DF91089515
:100F0000DF93CF9300D0CDB7DEB79A838983ECE42B
:100F1000F0E089819A819183808389819A8190937D
:100F20008B0080938A000F900F90CF91DF910895EE
:100F3000DF93CF9300D0CDB7DEB79A838983E6E401
:100F4000F0E089819A81918380830F900F90CF91F7
:100F5000DF910895DF93CF9300D00F92CDB7DEB726
:100F60009B838A8381E089838A819B81009749F0F2
:100F7000ECE4F0E080819181EA81FB8191838083C0
:100F800001C0198289810F900F900F90CF91DF914E
:100F90000895DF93CF93CDB7DEB7AEE4B0E0EEE4D3
:100FA000F0E0808180648C93A9E5B0E0E9E5F0E0B1
:100FB000808180628C93CF91DF910895DF93CF93EE
:100FC00000D00F92CDB7DEB79B838A8381E08983FF
:100FD0008A819B81009749F080916E0090916F000B
:100FE000EA81FB819183808301C0198289810F90FE
:100FF0000F900F90CF91DF910895DF93CF9300D0A2
:101000000F92CDB7DEB79B838A8381E089838A8183
:101010009B810097A1F020916E0030916F0080912C
:10102000700090917100820F931FCC01A0E0B0E09E
:10103000EA81FB8180839183A283B38301C01982FB
:1010400089810F900F900F90CF91DF910895DF93DA
:10105000CF9300D00F92CDB7DEB79B838A8381E018
:1010600089838A819B81009731F180916E009091F4
:101070006F00CC01A0E0B0E024E630E040E050E0BA
:10108000BC01CD010E94DF0ADC01CB01482F50E0FA
:1010900020916E0030916F008091700090917100EE
:1010A000280F391FCA01B9010E94FE0ACB01EA814B
:1010B000FB81808301C0198289810F900F900F906E
:1010C000CF91DF910895DF93CF930F92CDB7DEB725
:1010D00081E08983AFE4B0E0EFE4F0E080818E7FCF
:1010E0008C93AFE4B0E0EFE4F0E080818D7F8C93EF
:1010F000AEE4B0E0EEE4F0E08081877F8C93AEE474
:10110000B0E0EEE4F0E080818F7E8C93AFE4B0E05D
:10111000EFE4F0E080818F778C93AFE4B0E0EFE410
:10112000F0E080818F7B8C93AFE4B0E0EFE4F0E0FF
:1011300080818F7D8C93AFE4B0E0EFE4F0E08081BC
:101140008F7E8C93A9E5B0E0E9E5F0E080818B7FAC
:101150008C93A9E5B0E0E9E5F0E08081877F8C938E
:10116000A9E5B0E0E9E5F0E080818F7E8C93A9E508
:10117000B0E0E9E5F0E080818F7D8C93AEE4B0E0F3
:10118000EEE4F0E080818B7F8C93AEE4B0E0EEE49F
:10119000F0E080818D7F8C93AEE4B0E0EEE4F0E08F
:1011A00080818E7F8C9389810F90CF91DF910895FC
:1011B0001F920F920FB60F9211242F933F934F93CC
:1011C0005F936F937F938F939F93AF93BF93EF93AF
:1011D000FF93DF93CF93CDB7DEB7809172009091EC
:1011E0007300A0917400B09175000196A11DB11D0E
:1011F0008093720090937300A0937400B093750075
:1012000020917200309173004091740050917500EC
:101210008091860090918700A0918800B09189000C
:10122000281739074A075B07D9F4ECE4F0E080910E
:101230008A0090918B0091838083109272001092AB
:101240007300109274001092750080916800909164
:101250006900009729F0E0916800F0916900099514
:10126000CF91DF91FF91EF91BF91AF919F918F91BE
:101270007F916F915F914F913F912F910F900FBE92
:101280000F901F9018951F920F920FB60F92112476
:101290002F933F934F935F936F937F938F939F937E
:1012A000AF93BF93EF93FF93DF93CF93CDB7DEB7A9
:1012B0008091760090917700A0917800B0917900AC
:1012C0000196A11DB11D8093760090937700A093A5
:1012D0007800B093790020917600309177004091AA
:1012E00078005091790080918C0090918D00A091B0
:1012F0008E00B0918F00281739074A075B0799F4D1
:101300001092760010927700109278001092790077
:1013100080916A0090916B00009729F0E0916A003B
:10132000F0916B000995CF91DF91FF91EF91BF9103
:10133000AF919F918F917F916F915F914F913F916D
:101340002F910F900FBE0F901F9018951F920F9224
:101350000FB60F9211242F933F934F935F936F9388
:101360007F938F939F93AF93BF93EF93FF93DF93FD
:10137000CF93CDB7DEB780917A0090917B00A0919A
:101380007C00B0917D000196A11DB11D80937A0073
:1013900090937B00A0937C00B0937D0020917A0015
:1013A00030917B0040917C0050917D0080919000B5
:1013B00090919100A0919200B09193002817390765
:1013C0004A075B0799F410927A0010927B00109202
:1013D0007C0010927D0080916C0090916D000097D0
:1013E00029F0E0916C00F0916D000995CF91DF91AB
:1013F000FF91EF91BF91AF919F918F917F916F91ED
:101400005F914F913F912F910F900FBE0F901F90C2
:1014100018951F920F920FB60F9211242F933F939E
:101420008F939F93AF93BF93EF93FF93DF93CF93EC
:1014300000D0CDB7DEB7E6E4F0E0808191819A83F9
:101440008983809180008823B9F420917E003091B7
:101450007F0089819A81821B930B90937100809306
:101460007000AEE4B0E0EEE4F0E080818F7B8C931E
:1014700081E08093800015C020917E0030917F0034
:1014800089819A81821B930B90936F0080936E00E9
:10149000AEE4B0E0EEE4F0E0808180648C931092E2
:1014A000800089819A8190937F0080937E000F90C5
:1014B0000F90CF91DF91FF91EF91BF91AF919F91ED
:1014C0008F913F912F910F900FBE0F901F90189505
:1014D000DF93CF93CDB7DEB70E943E000E944D044C
:1014E0002EE83AE080E068EE73E040E757E10E94C2
:1014F0007C0429EA3AE081E060ED77E040E050E0EA
:101500000E947C0424EC3AE082E068E873E140E069
:1015100050E00E947C040E946904FFCFDF93CF93C8
:101520000F92CDB7DEB719828981882341F480E01C
:1015300060E041E00E944C0181E0898306C080E0C8
:1015400060E040E00E944C0119820F90CF91DF9142
:101550000895DF93CF930F92CDB7DEB719828981BB
:10156000882341F480E061E041E00E944C0181E089
:10157000898306C080E061E040E00E944C0119824E
:101580000F90CF91DF910895DF93CF930F92CDB756
:10159000DEB719828981882341F480E062E041E06E
:1015A0000E944C0181E0898306C080E062E040E057
:1015B0000E944C0119820F90CF91DF910895629F94
:1015C000D001739FF001829FE00DF11D649FE00D3B
:1015D000F11D929FF00D839FF00D749FF00D659F9C
:1015E000F00D9927729FB00DE11DF91F639FB00D9B
:1015F000E11DF91FBD01CF0111240895AA1BBB1BDA
:1016000051E107C0AA1FBB1FA617B70710F0A61B02
:10161000B70B881F991F5A95A9F780959095BC0123
:08162000CD010895F894FFCFFD
:00000001FF
